{
  "contractName": "TodoList",
  "abi": [
    {
      "anonymous": false,
      "inputs": [
        {
          "indexed": false,
          "internalType": "string",
          "name": "content",
          "type": "string"
        },
        {
          "indexed": false,
          "internalType": "address",
          "name": "owner",
          "type": "address"
        },
        {
          "indexed": false,
          "internalType": "int256",
          "name": "ID",
          "type": "int256"
        }
      ],
      "name": "TodoAdded",
      "type": "event"
    },
    {
      "inputs": [],
      "name": "TodoCount",
      "outputs": [
        {
          "internalType": "int256",
          "name": "",
          "type": "int256"
        }
      ],
      "stateMutability": "view",
      "type": "function",
      "constant": true
    },
    {
      "inputs": [
        {
          "internalType": "string",
          "name": "_content",
          "type": "string"
        }
      ],
      "name": "addTodoEntry",
      "outputs": [
        {
          "components": [
            {
              "internalType": "string",
              "name": "content",
              "type": "string"
            },
            {
              "internalType": "bool",
              "name": "completed",
              "type": "bool"
            },
            {
              "internalType": "uint256",
              "name": "timestamp",
              "type": "uint256"
            },
            {
              "internalType": "int256",
              "name": "ID",
              "type": "int256"
            }
          ],
          "internalType": "struct TodoList.TodoEntry",
          "name": "todo",
          "type": "tuple"
        }
      ],
      "stateMutability": "nonpayable",
      "type": "function"
    },
    {
      "inputs": [],
      "name": "fetchTodoEntries",
      "outputs": [
        {
          "components": [
            {
              "internalType": "string",
              "name": "content",
              "type": "string"
            },
            {
              "internalType": "bool",
              "name": "completed",
              "type": "bool"
            },
            {
              "internalType": "uint256",
              "name": "timestamp",
              "type": "uint256"
            },
            {
              "internalType": "int256",
              "name": "ID",
              "type": "int256"
            }
          ],
          "internalType": "struct TodoList.TodoEntry[]",
          "name": "",
          "type": "tuple[]"
        }
      ],
      "stateMutability": "view",
      "type": "function",
      "constant": true
    },
    {
      "inputs": [
        {
          "internalType": "int256",
          "name": "_ID",
          "type": "int256"
        }
      ],
      "name": "fetchTodoEntryByID",
      "outputs": [
        {
          "components": [
            {
              "internalType": "string",
              "name": "content",
              "type": "string"
            },
            {
              "internalType": "bool",
              "name": "completed",
              "type": "bool"
            },
            {
              "internalType": "uint256",
              "name": "timestamp",
              "type": "uint256"
            },
            {
              "internalType": "int256",
              "name": "ID",
              "type": "int256"
            }
          ],
          "internalType": "struct TodoList.TodoEntry",
          "name": "",
          "type": "tuple"
        }
      ],
      "stateMutability": "view",
      "type": "function",
      "constant": true
    },
    {
      "inputs": [
        {
          "internalType": "int256",
          "name": "_ID",
          "type": "int256"
        }
      ],
      "name": "toggleTodoCompletion",
      "outputs": [
        {
          "components": [
            {
              "internalType": "string",
              "name": "content",
              "type": "string"
            },
            {
              "internalType": "bool",
              "name": "completed",
              "type": "bool"
            },
            {
              "internalType": "uint256",
              "name": "timestamp",
              "type": "uint256"
            },
            {
              "internalType": "int256",
              "name": "ID",
              "type": "int256"
            }
          ],
          "internalType": "struct TodoList.TodoEntry",
          "name": "",
          "type": "tuple"
        }
      ],
      "stateMutability": "nonpayable",
      "type": "function"
    }
  ],
  "bytecode": "0x6080604052600060015534801561001557600080fd5b5061113e806100256000396000f3fe608060405234801561001057600080fd5b50600436106100575760003560e01c80636d67020a1461005c578063a26db0ef1461007a578063cc8d127e146100aa578063db12a920146100da578063e39f3b1c1461010a575b600080fd5b610064610128565b6040516100719190610d93565b60405180910390f35b610094600480360381019061008f9190610afb565b61012e565b6040516100a19190610dec565b60405180910390f35b6100c460048036038101906100bf9190610b24565b610387565b6040516100d19190610dec565b60405180910390f35b6100f460048036038101906100ef9190610afb565b6104c8565b6040516101019190610dec565b60405180910390f35b610112610855565b60405161011f9190610d71565b60405180910390f35b60015481565b6101366109b1565b60005b6000803373ffffffffffffffffffffffffffffffffffffffff1673ffffffffffffffffffffffffffffffffffffffff1681526020019081526020016000208054905081101561037c57826000803373ffffffffffffffffffffffffffffffffffffffff1673ffffffffffffffffffffffffffffffffffffffff16815260200190815260200160002082815481106101f9577f4e487b7100000000000000000000000000000000000000000000000000000000600052603260045260246000fd5b9060005260206000209060040201600301541415610369576000803373ffffffffffffffffffffffffffffffffffffffff1673ffffffffffffffffffffffffffffffffffffffff1681526020019081526020016000208181548110610287577f4e487b7100000000000000000000000000000000000000000000000000000000600052603260045260246000fd5b90600052602060002090600402016040518060800160405290816000820180546102b090610f5e565b80601f01602080910402602001604051908101604052809291908181526020018280546102dc90610f5e565b80156103295780601f106102fe57610100808354040283529160200191610329565b820191906000526020600020905b81548152906001019060200180831161030c57829003601f168201915b505050505081526020016001820160009054906101000a900460ff1615151515815260200160028201548152602001600382015481525050915050610382565b80806103749061100a565b915050610139565b50600080fd5b919050565b61038f6109b1565b6040518060800160405280838152602001600015158152602001428152602001600160008154809291906103c290610fc1565b9190505581525090506000803373ffffffffffffffffffffffffffffffffffffffff1673ffffffffffffffffffffffffffffffffffffffff168152602001908152602001600020819080600181540180825580915050600190039060005260206000209060040201600090919091909150600082015181600001908051906020019061044f9291906109db565b5060208201518160010160006101000a81548160ff021916908315150217905550604082015181600201556060820151816003015550507f45d2c0462f7ee42b094cb46f5f37e2af808d66ed5d3e6df98b22c46d39a7474682336001546040516104bb93929190610dae565b60405180910390a1919050565b6104d06109b1565b60005b6000803373ffffffffffffffffffffffffffffffffffffffff1673ffffffffffffffffffffffffffffffffffffffff1681526020019081526020016000208054905081101561084a57826000803373ffffffffffffffffffffffffffffffffffffffff1673ffffffffffffffffffffffffffffffffffffffff1681526020019081526020016000208281548110610593577f4e487b7100000000000000000000000000000000000000000000000000000000600052603260045260246000fd5b9060005260206000209060040201600301541415610837576000803373ffffffffffffffffffffffffffffffffffffffff1673ffffffffffffffffffffffffffffffffffffffff1681526020019081526020016000208181548110610621577f4e487b7100000000000000000000000000000000000000000000000000000000600052603260045260246000fd5b906000526020600020906004020160010160009054906101000a900460ff16156000803373ffffffffffffffffffffffffffffffffffffffff1673ffffffffffffffffffffffffffffffffffffffff16815260200190815260200160002082815481106106b7577f4e487b7100000000000000000000000000000000000000000000000000000000600052603260045260246000fd5b906000526020600020906004020160010160006101000a81548160ff0219169083151502179055506000803373ffffffffffffffffffffffffffffffffffffffff1673ffffffffffffffffffffffffffffffffffffffff1681526020019081526020016000208181548110610755577f4e487b7100000000000000000000000000000000000000000000000000000000600052603260045260246000fd5b906000526020600020906004020160405180608001604052908160008201805461077e90610f5e565b80601f01602080910402602001604051908101604052809291908181526020018280546107aa90610f5e565b80156107f75780601f106107cc576101008083540402835291602001916107f7565b820191906000526020600020905b8154815290600101906020018083116107da57829003601f168201915b505050505081526020016001820160009054906101000a900460ff1615151515815260200160028201548152602001600382015481525050915050610850565b80806108429061100a565b9150506104d3565b50600080fd5b919050565b60606000803373ffffffffffffffffffffffffffffffffffffffff1673ffffffffffffffffffffffffffffffffffffffff168152602001908152602001600020805480602002602001604051908101604052809291908181526020016000905b828210156109a857838290600052602060002090600402016040518060800160405290816000820180546108e890610f5e565b80601f016020809104026020016040519081016040528092919081815260200182805461091490610f5e565b80156109615780601f1061093657610100808354040283529160200191610961565b820191906000526020600020905b81548152906001019060200180831161094457829003601f168201915b505050505081526020016001820160009054906101000a900460ff1615151515815260200160028201548152602001600382015481525050815260200190600101906108b5565b50505050905090565b60405180608001604052806060815260200160001515815260200160008152602001600081525090565b8280546109e790610f5e565b90600052602060002090601f016020900481019282610a095760008555610a50565b82601f10610a2257805160ff1916838001178555610a50565b82800160010185558215610a50579182015b82811115610a4f578251825591602001919060010190610a34565b5b509050610a5d9190610a61565b5090565b5b80821115610a7a576000816000905550600101610a62565b5090565b6000610a91610a8c84610e33565b610e0e565b905082815260208101848484011115610aa957600080fd5b610ab4848285610f1c565b509392505050565b600081359050610acb816110f1565b92915050565b600082601f830112610ae257600080fd5b8135610af2848260208601610a7e565b91505092915050565b600060208284031215610b0d57600080fd5b6000610b1b84828501610abc565b91505092915050565b600060208284031215610b3657600080fd5b600082013567ffffffffffffffff811115610b5057600080fd5b610b5c84828501610ad1565b91505092915050565b6000610b718383610c9c565b905092915050565b610b8281610eca565b82525050565b6000610b9382610e74565b610b9d8185610e97565b935083602082028501610baf85610e64565b8060005b85811015610beb5784840389528151610bcc8582610b65565b9450610bd783610e8a565b925060208a01995050600181019050610bb3565b50829750879550505050505092915050565b610c0681610edc565b82525050565b610c1581610ee8565b82525050565b610c2481610ee8565b82525050565b6000610c3582610e7f565b610c3f8185610ea8565b9350610c4f818560208601610f2b565b610c58816110e0565b840191505092915050565b6000610c6e82610e7f565b610c788185610eb9565b9350610c88818560208601610f2b565b610c91816110e0565b840191505092915050565b60006080830160008301518482036000860152610cb98282610c2a565b9150506020830151610cce6020860182610bfd565b506040830151610ce16040860182610d62565b506060830151610cf46060860182610c0c565b508091505092915050565b60006080830160008301518482036000860152610d1c8282610c2a565b9150506020830151610d316020860182610bfd565b506040830151610d446040860182610d62565b506060830151610d576060860182610c0c565b508091505092915050565b610d6b81610f12565b82525050565b60006020820190508181036000830152610d8b8184610b88565b905092915050565b6000602082019050610da86000830184610c1b565b92915050565b60006060820190508181036000830152610dc88186610c63565b9050610dd76020830185610b79565b610de46040830184610c1b565b949350505050565b60006020820190508181036000830152610e068184610cff565b905092915050565b6000610e18610e29565b9050610e248282610f90565b919050565b6000604051905090565b600067ffffffffffffffff821115610e4e57610e4d6110b1565b5b610e57826110e0565b9050602081019050919050565b6000819050602082019050919050565b600081519050919050565b600081519050919050565b6000602082019050919050565b600082825260208201905092915050565b600082825260208201905092915050565b600082825260208201905092915050565b6000610ed582610ef2565b9050919050565b60008115159050919050565b6000819050919050565b600073ffffffffffffffffffffffffffffffffffffffff82169050919050565b6000819050919050565b82818337600083830152505050565b60005b83811015610f49578082015181840152602081019050610f2e565b83811115610f58576000848401525b50505050565b60006002820490506001821680610f7657607f821691505b60208210811415610f8a57610f89611082565b5b50919050565b610f99826110e0565b810181811067ffffffffffffffff82111715610fb857610fb76110b1565b5b80604052505050565b6000610fcc82610ee8565b91507f7fffffffffffffffffffffffffffffffffffffffffffffffffffffffffffffff821415610fff57610ffe611053565b5b600182019050919050565b600061101582610f12565b91507fffffffffffffffffffffffffffffffffffffffffffffffffffffffffffffffff82141561104857611047611053565b5b600182019050919050565b7f4e487b7100000000000000000000000000000000000000000000000000000000600052601160045260246000fd5b7f4e487b7100000000000000000000000000000000000000000000000000000000600052602260045260246000fd5b7f4e487b7100000000000000000000000000000000000000000000000000000000600052604160045260246000fd5b6000601f19601f8301169050919050565b6110fa81610ee8565b811461110557600080fd5b5056fea264697066735822122014266a0d5915c6a053d56b84d86a04a684f1ad440d90b27df6f1bb04d507b6c564736f6c63430008010033",
  "immutableReferences": {},
  "source": "// SPDX-License-Identifier: MIT\r\n\r\npragma solidity >=0.7.0 <0.9.0;\r\n\r\n/**\r\n  * @title Todo List\r\n  * @author Mehtaab Gill\r\n  */\r\ncontract TodoList {\r\n\r\n    // main map for storing all todo entries\r\n    mapping (address => TodoEntry[]) todoEntries;\r\n    \r\n    // running count of todo entires\r\n    int256 public TodoCount = 0;\r\n\r\n    struct TodoEntry {\r\n        string content;\r\n        bool completed;\r\n        uint256 timestamp;\r\n        int256 ID;\r\n    }\r\n\r\n    event TodoAdded(\r\n        string content,\r\n        address owner,\r\n        int256 ID\r\n    );\r\n\r\n  /**\r\n    * @notice Add a new todo entry\r\n    * @param _content The content of the todo\r\n    * @return todo The TodoEntry which has been created\r\n    */\r\n    function addTodoEntry(string memory _content) public returns (TodoEntry memory todo) {\r\n        todo = TodoEntry(_content, false, block.timestamp, TodoCount++);\r\n        todoEntries[msg.sender].push(todo);\r\n        emit TodoAdded(_content, msg.sender, TodoCount);\r\n    }\r\n\r\n  /**\r\n    * @notice Fetch all todo entries of the message sender\r\n    * @return The array of TodoEntry\r\n    */\r\n    function fetchTodoEntries() public view returns (TodoEntry[] memory) {\r\n        return todoEntries[msg.sender];\r\n    }\r\n\r\n  /**\r\n    * @notice Fetch a specific TodoEntry by ID\r\n    * @param _ID The ID of the TodoEntry to be fetched\r\n    * @return TodoEntry The TodoEntry of the corresponding owner + ID\r\n    */\r\n    function fetchTodoEntryByID(int _ID) public view returns (TodoEntry memory) {\r\n        for (uint256 i = 0; i < todoEntries[msg.sender].length; i++) {\r\n            if(todoEntries[msg.sender][i].ID == _ID) {\r\n                return todoEntries[msg.sender][i];\r\n            }\r\n        }\r\n\r\n        revert();\r\n    }\r\n\r\n  /**\r\n    * @notice Fetch all todo entries of the message sender\r\n    * @param _ID The ID of the TodoEntry to toggle the completion for\r\n    * @return TodoEntry The updated TodoEntry\r\n    */\r\n    function toggleTodoCompletion(int _ID) public returns (TodoEntry memory) {\r\n        for (uint256 i = 0; i < todoEntries[msg.sender].length; i++) {\r\n            if(todoEntries[msg.sender][i].ID == _ID) {\r\n                todoEntries[msg.sender][i].completed = !todoEntries[msg.sender][i].completed;\r\n                return todoEntries[msg.sender][i];\r\n            }\r\n        }\r\n\r\n        revert();\r\n    }\r\n}",
  "sourcePath": "C:/Users/mehta/source/blockchain-todo-list/contracts/TodoList.sol",
  "compiler": {
    "name": "solc",
    "version": "0.8.1+commit.df193b15.Emscripten.clang"
  },
  "schemaVersion": "3.4.1",
  "updatedAt": "2021-05-15T07:22:51.276Z",
  "networkType": "ethereum",
  "devdoc": {
    "author": "Mehtaab Gill",
    "kind": "dev",
    "methods": {
      "addTodoEntry(string)": {
        "params": {
          "_content": "The content of the todo"
        },
        "returns": {
          "todo": "The TodoEntry which has been created"
        }
      },
      "fetchTodoEntries()": {
        "returns": {
          "_0": "The array of TodoEntry"
        }
      },
      "fetchTodoEntryByID(int256)": {
        "params": {
          "_ID": "The ID of the TodoEntry to be fetched"
        },
        "returns": {
          "_0": "TodoEntry The TodoEntry of the corresponding owner + ID"
        }
      },
      "toggleTodoCompletion(int256)": {
        "params": {
          "_ID": "The ID of the TodoEntry to toggle the completion for"
        },
        "returns": {
          "_0": "TodoEntry The updated TodoEntry"
        }
      }
    },
    "title": "Todo List",
    "version": 1
  },
  "userdoc": {
    "kind": "user",
    "methods": {
      "addTodoEntry(string)": {
        "notice": "Add a new todo entry"
      },
      "fetchTodoEntries()": {
        "notice": "Fetch all todo entries of the message sender"
      },
      "fetchTodoEntryByID(int256)": {
        "notice": "Fetch a specific TodoEntry by ID"
      },
      "toggleTodoCompletion(int256)": {
        "notice": "Fetch all todo entries of the message sender"
      }
    },
    "version": 1
  }
}